[
	[{
		"Raw" : "010000000e7a1a58017a06ea98cd40ba2e3288262b28638cec5337c1456aaf5eedc8e9e5a20f062bdf000000008b483045022062df68f0fbd6668f1ba32b3bbb49895d2f5d4dbc1ff493578cfb220cae0b89f30221008ba84034f0dcb6e5788c43ff7e0c5cca9a643926e56bf588c6ca7b795da73e55014104e0ba531dc5d2ad13e2178196ade1a23989088cfbeddc7886528412087f4bff2ebc19ce739f25a63056b6026a269987fcf5383131440501b583bab70a7254b09effffffff01f0ca052a010000001976a9142dbde30815faee5bf221d6688ebad7e12f7b2b1a88ac00000000",
		"JSON" : {
					"hash": "13a8e8ffae359d2a658b04132920cc7ee59aeefbe235a67759703a680f596ca2",
					"ver": 1,
					"vin_sz": 1,
					"vout_sz": 1,
					"lock_time": 0,
					"size": 224,
					"in": [
						{
							"prev_out": {
								"hash": "df2b060fa2e5e9c8ed5eaf6a45c13753ec8c63282b2688322eba40cd98ea067a",
								"n": "0"
							},
							"scriptSig": "3045022062df68f0fbd6668f1ba32b3bbb49895d2f5d4dbc1ff493578cfb220cae0b89f30221008ba84034f0dcb6e5788c43ff7e0c5cca9a643926e56bf588c6ca7b795da73e5501 04e0ba531dc5d2ad13e2178196ade1a23989088cfbeddc7886528412087f4bff2ebc19ce739f25a63056b6026a269987fcf5383131440501b583bab70a7254b09e",
							"sequence": 4294967295
						}
					],
					"out": [
						{
							"value": "49.99990000",
							"scriptPubKey": "OP_DUP OP_HASH160 2dbde30815faee5bf221d6688ebad7e12f7b2b1a OP_EQUALVERIFY OP_CHECKSIG"
						}
					]
				}
	}],
	[{
		"Raw" : "01000000cd7a1a58017a06ea98cd40ba2e3288262b28638cec5337c1456aaf5eedc8e9e5a20f062bdf000000008a473044022037374d1135f99f95ea5fb508567c2faeb1073550a31efe8490f07f276c7be716022008f6fe71fcbc7371cd71448908df27b3bea93ddb554f996b3cff2dfb7e14dd1c014104e0ba531dc5d2ad13e2178196ade1a23989088cfbeddc7886528412087f4bff2ebc19ce739f25a63056b6026a269987fcf5383131440501b583bab70a7254b09effffffff01f0ca052a010000001976a9142dbde30815faee5bf221d6688ebad7e12f7b2b1a88ac00000000",
		"JSON" : {
					"hash": "bb17e37820d02fe9f28b1c591d6ea93429eb1768443930cd17d6b74fe22bac07",
					"ver": 1,
					"vin_sz": 1,
					"vout_sz": 1,
					"lock_time": 0,
					"size": 223,
					"in": [
						{
							"prev_out": {
								"hash": "df2b060fa2e5e9c8ed5eaf6a45c13753ec8c63282b2688322eba40cd98ea067a",
								"n": 0
							},
							"scriptSig": "3044022037374d1135f99f95ea5fb508567c2faeb1073550a31efe8490f07f276c7be716022008f6fe71fcbc7371cd71448908df27b3bea93ddb554f996b3cff2dfb7e14dd1c01 04e0ba531dc5d2ad13e2178196ade1a23989088cfbeddc7886528412087f4bff2ebc19ce739f25a63056b6026a269987fcf5383131440501b583bab70a7254b09e",
							"sequence": 4294967295
						}
					],
					"out": [
						{
							"value": "49.99990000",
							"scriptPubKey": "OP_DUP OP_HASH160 2dbde30815faee5bf221d6688ebad7e12f7b2b1a OP_EQUALVERIFY OP_CHECKSIG"
						}
					]
				}
	}],
	[{
		"Raw" : "01000000ab7b1a58017a06ea98cd40ba2e3288262b28638cec5337c1456aaf5eedc8e9e5a20f062bdf000000008a47304402204cd2ebbcb20e65c75264d5fcb4a3a859fa5600d8d3bbb2fbabb24dd1392ed60502201792562de2f8325f0c6825436938589e1d296560d01bca5aaf455176ce9c4a2e014104e0ba531dc5d2ad13e2178196ade1a23989088cfbeddc7886528412087f4bff2ebc19ce739f25a63056b6026a269987fcf5383131440501b583bab70a7254b09effffffff03f0ca052a010000001976a9142dbde30815faee5bf221d6688ebad7e12f7b2b1a88ac00a3e111000000001976a9149a823b698f778ece90b094dc3f12a81f5e3c334588ac00e40b54020000001976a9142dbde30815faee5bf221d6688ebad7e12f7b2b1a88ac00000000",
		"JSON" : {
					"hash": "b3c5bd67c791b716db4a198d2ed4f52593a6371badb608f8e8c3c4d912d8e1db",
					"ver": 1,
					"vin_sz": 1,
					"vout_sz": 3,
					"lock_time": 0,
					"size": 291,
					"in": [
						{
							"prev_out": {
								"hash": "df2b060fa2e5e9c8ed5eaf6a45c13753ec8c63282b2688322eba40cd98ea067a",
								"n": 0
							},
							"scriptSig": "304402204cd2ebbcb20e65c75264d5fcb4a3a859fa5600d8d3bbb2fbabb24dd1392ed60502201792562de2f8325f0c6825436938589e1d296560d01bca5aaf455176ce9c4a2e01 04e0ba531dc5d2ad13e2178196ade1a23989088cfbeddc7886528412087f4bff2ebc19ce739f25a63056b6026a269987fcf5383131440501b583bab70a7254b09e",
							"sequence": 4294967295
						}
					],
					"out": [
						{
							"value": "49.99990000",
							"scriptPubKey": "OP_DUP OP_HASH160 2dbde30815faee5bf221d6688ebad7e12f7b2b1a OP_EQUALVERIFY OP_CHECKSIG"
						},
						{
							"value": "3.00000000",
							"scriptPubKey": "OP_DUP OP_HASH160 9a823b698f778ece90b094dc3f12a81f5e3c3345 OP_EQUALVERIFY OP_CHECKSIG"
						},
						{
							"value": "100.00000000",
							"scriptPubKey": "OP_DUP OP_HASH160 2dbde30815faee5bf221d6688ebad7e12f7b2b1a OP_EQUALVERIFY OP_CHECKSIG"
						}
					]
				}
	}],
	[{
		"Raw" : "01000000ec7b1a5801c997a5e56e104102fa209c6a852dd90660a20b2d9c352423edce25857fcd3704000000004847304402204e45e16932b8af514961a1d3a1a25fdf3f4f7732e9d624c6c61548ab5fb8cd410220181522ec8eca07de4860a4acdd12909d831cc56cbbac4622082221a8768d1d0901ffffffff0200ca9a3b00000000434104ae1a62fe09c5f51b13905f07f06b99a2f7159b2225f374cd378d71302fa28414e7aab37397f554a7df5f142c21c1b7303b8a0626f1baded5c72a704f7e6cd84cac00286bee0000000043410411db93e1dcdb8a016b49840f8c53bc1eb68a382e97b1482ecad7b148a6909a5cb2e0eaddfb84ccf9744464f82e160bfa9b8b64f9d4c03f999b8643f656b412a3ac00000000",
		"JSON" : {
				  "hash":"d2c1391d4f4b6668324169177e6e93285c52facc7e3cb4d2bec0bd64d67bf457",
				  "ver":1,
				  "vin_sz":1,
				  "vout_sz":2,
				  "lock_time":0,
				  "size":275,
				  "in":[
					{
					  "prev_out":{
						"hash":"0437cd7f8525ceed2324359c2d0ba26006d92d856a9c20fa0241106ee5a597c9",
						"n": 0
					  },
					  "scriptSig":"304402204e45e16932b8af514961a1d3a1a25fdf3f4f7732e9d624c6c61548ab5fb8cd410220181522ec8eca07de4860a4acdd12909d831cc56cbbac4622082221a8768d1d0901"
					}
				  ],
				  "out":[
					{
					  "value":"10.00000000",
					  "scriptPubKey":"04ae1a62fe09c5f51b13905f07f06b99a2f7159b2225f374cd378d71302fa28414e7aab37397f554a7df5f142c21c1b7303b8a0626f1baded5c72a704f7e6cd84c OP_CHECKSIG"
					},
					{
					  "value":"40.00000000",
					  "scriptPubKey":"0411db93e1dcdb8a016b49840f8c53bc1eb68a382e97b1482ecad7b148a6909a5cb2e0eaddfb84ccf9744464f82e160bfa9b8b64f9d4c03f999b8643f656b412a3 OP_CHECKSIG"
					}
				  ]
				}
	}]
]